:020000040000FA
:100000000C94A7130C945C2F0C94352F0C94CF13E5
:100010000C94CF130C94CF130C94CF130C94CF13D8
:100020000C94CF130C94CF130C94CF130C94CF13C8
:100030000C94CF130C94CF130C94CF130C94CF13B8
:100040000C94EB2E0C94CF130C94CF130C94CF1371
:100050000C94CF130C94CF130C94CF130C94CF1398
:100060000C94832F0C94CF130000000000000000BC
:100070000000000000000000000000000000000080
:100080000000000000000000002070702000000050
:100090000000000000000000000000000000000060
:1000A0000000000000000000000000000000000050
:1000B00000000000000000000000000000FEFDFB4A
:1000C000070707070707FBFDFE0000F7E3C1000075
:1000D00000000000C1E3F700003F5F6F70707070B8
:1000E00070706F5F3F000000000000000000000023
:1000F000F8FCFE0000000000000000000000C1E36A
:10010000F700000000000000000000000F1F3F008B
:1001100000000103070707070707FBFDFE0000F0CB
:10012000E8DC1C1C1C1C1C1C1D0B0700003F5F6F27
:10013000707070707070604000000000010307076D
:1001400007070707FBFDFE000000081C1C1C1C1C09
:100150001C1CDDEBF7000000406070707070707068
:100160006F5F3F0000FEFCF8000000000000F8FC9C
:10017000FE0000070B1D1C1C1C1C1C1CDDEBF700EB
:10018000000000000000000000000F1F3F0000FE04
:10019000FDFB0707070707070301000000070B1D0A
:1001A0001C1C1C1C1C1CDCE8F00000004060707073
:1001B000707070706F5F3F0000FEFDFB0707070760
:1001C00007070301000000F7EBDD1C1C1C1C1C1CB6
:1001D000DCE8F000003F5F6F7070707070706F5FF0
:1001E0003F0000000103070707070707FBFDFE00AC
:1001F00000000000000000000000C1E3F700000064
:1002000000000000000000000F1F3F0000FEFDFB8B
:10021000070707070707FBFDFE0000F7EBDD1C1CC7
:100220001C1C1C1CDDEBF700003F5F6F70707070D2
:1002300070706F5F3F0000FEFDFB070707070707B1
:10024000FBFDFE0000070B1D1C1C1C1C1C1CDDEB19
:10025000F700000040607070707070706F5F3F005A
:10026000000000000000000000000000000000008E
:10027000000000F0F0000000000000171700000070
:1002800000707000707000000000000000000000AE
:1002900040F0F040F0F04000041F1F041F1F040056
:1002A000E0F010FC103020000819117F111F0E0023
:1002B00060F0906080C06000000C06030D1E120C00
:1002C00000E0F01010302000000E1F11111F1E0062
:1002D000000000707000000000000000000000003E
:1002E000000000C0E0301000000000070F181000F0
:1002F000001030E0C00000000010180F07000000E0
:100300000060C0F0C06000000003010701030000AE
:10031000000000C0C000000000010107070101004B
:1003200000000000000000000000407030000000ED
:1003300000000000000000000000010101010000B9
:10034000000000000000000000000010100000008D
:1003500000000080F070000000001C1F030000007F
:1003600000E0F01090F0E000000F1F13111F0F00CD
:1003700000C060F0F00000000010101F1F101000FF
:100380000020301090F06000001C1E1311101000AF
:100390000020301010F0E00000081811111F0E00AE
:1003A000000080C060F0F00000030302021F1F0085
:1003B00000F0F0909090100000081810101F0F002F
:1003C00000E0F01010302000000F1F11111F0E0070
:1003D0000010101090F07000001C1E0301000000BF
:1003E00000E0F01010F0E000000E1F11111F0E00D1
:1003F00000E0F01010F0E00000081911111F0F00CC
:10040000000000404000000000000010100000004C
:10041000000000404000000000004070300000007C
:1004200000000080C040000000000103060400003E
:1004300000008080808000000000020202020000B4
:10044000000040C08000000000000406030100001E
:100450000020301090F0600000000017170000002E
:10046000E0109050D010E0000F1013141714030088
:1004700000E0F01010F0E000001F1F02021F1F003C
:1004800000F0F01010F0E000001F1F11111F0E000F
:1004900000E0F01010302000000F1F1010180800AE
:1004A00000F0F01010F0E000001F1F10101F0F00F0
:1004B00000F0F01010101000001F1F11111010009C
:1004C00000F0F01010101000001F1F0101000000CC
:1004D00000E0F01010302000000F1F10111F1F004F
:1004E00000F0F00000F0F000001F1F01011F1F00CE
:1004F000001010F0F01010000010101F1F1010005E
:100500000000001010F0F01000081810101F0F006D
:1005100000F0F080C0703000001F1F03061C1800A0
:1005200000F0F00000000000001F1F10101010006D
:10053000F0F0C080C0F0F0001F1F0001001F1F007E
:1005400000F0F08000F0F000001F1F01031F1F00EB
:1005500000E0F01010F0E000000F1F10101F0F005F
:1005600000F0F01010F0E000001F1F01010100007A
:1005700000E0F01010F0E000000F1F160C1F170035
:1005800000F0F01010F0E000001F1F03071D18001E
:1005900000E0F0101030200000081911111F0E00AB
:1005A000001010F0F01010000000001F1F000000ED
:1005B00000F0F00000F0F000000F1F10101F0F00FF
:1005C00000F0F00000F0F00000070F18180F07000F
:1005D000F0F000C000F0F0000F1F100F101F0F0010
:1005E0000070F08080F07000001C1E03031E1C00D1
:1005F0000070F08080F070000000001F1F000000FD
:100600000010101090F07000001C1E13111010004C
:10061000000000F0F01010000000001F1F1010007C
:10062000000070F080000000000000031F1C0000AC
:10063000001010F0F00000000010101F1F0000005C
:1006400000C060303060C00000000000000000000A
:10065000000000000000000040404040404040409A
:10066000000010302000000000000000000000002A
:100670000080C04040C08000000C1E12121F1F00EE
:1006800000F0F04040C08000001F1F10101F0F003E
:100690000080C04040C08000000F1F1010180800EC
:1006A0000080C04040F0F000000F1F10101F1F001E
:1006B0000080C04040C08000000F1F12121B0B00C2
:1006C000000080E0F09090000000001F1F0000007C
:1006D0000080C04040C0C00000276F48487F3F00F6
:1006E00000F0F04040C08000001F1F00001F1F00EE
:1006F000004040D0D00000000010101F1F1010005C
:100700000000004040D0D00000206040407F3F000B
:1007100000F0F00080C04000001F1F070D181000FF
:10072000001010F0F00000000010101F1F1010004B
:10073000C0C0408040C080001F1F0007001F1F0076
:1007400000C0C04040C08000001F1F00001F1F00ED
:100750000080C04040C08000000F1F10101F0F001D
:1007600000C0C04040C08000007F7F10101F0F00FD
:100770000080C04040C0C000000F1F10107F7F00ED
:1007800000C0C00080C0C000001F1F0100000000AA
:100790000080C04040C0800000091B12121E0C00E7
:1007A000000040E0E04040000000000F1F1010007B
:1007B00000C0C00000C0C000000F1F10101F0F00BD
:1007C00000C0C00000C0C00000070F18180F0700CD
:1007D000C0C0000000C0C0000F1F100F101F0F008E
:1007E00000C0C00000C0C00000181D07071D180091
:1007F00000C0C00000C0C00000276F48487F3F0015
:100800000040404040C0C00000181C1613111000EA
:10081000000000E0F01010000000010F1E1010009A
:10082000000000F0F00000000000001F1F000000AA
:10083000001010F0E00000000010101E0F0100007A
:1008400020301030203010000000000000000000B8
:10085000000080007301760178017A017C017F013C
:1008600081018401860188018A018C018E01900139
:1008700092019401510268028A029502F502650311
:1008800068039303AE03B103B403D903E203E703A0
:10089000EA03EC03EF03F203F503F703FB03FE03A4
:1008A000100427042D0432043404360439043C04B3
:1008B00040044304450449044B044E04500400031F
:1008C000740BD484606FAE6CF9BB84A265B14BF637
:1008D00072011A21E85AD8D604735E2C226EC4E93C
:1008E000B58B819A1EE487C99E7B17526DADE3E5F7
:1008F0008B04A72E996A32AA9997CCA65B157956D4
:10090000480163B1DF5427065706538CA627AA6611
:10091000890318517EFB67D3CEDD3FFD3D1F478421
:1009200001F3856EF83B792B0C904B67467D54881C
:10093000FDD612E5E748F20EDB994D71A54068D966
:10094000C95939E475201CE9B1F5013C19BB60F7C0
:10095000FA6B1E689F19B6ED140F56BCC134CB005C
:100960009D43D40FF3629C9DF78B9D533A8D2F3D91
:10097000DE3D3831039BC7C159E9D175888D3658A2
:1009800086704E5B9ED0DBCBF7EA1FDBA53BB3BD89
:100990006BBCF37065D5170F64152420D5B87B0D9B
:1009A000272985881F5822574F09C04DD6E4C6B560
:1009B0003A373327BB6A1469031BEDA8C343E8EA3F
:1009C000DE410625C5C83CBF32B2A7DD22C2E9CA56
:1009D00084F2C0267C7801F7D5C60533E4C278ECF2
:1009E0001BFDD2507D11295799B0F1556674B4584A
:1009F00023A06F2ED89B08B33E53CF5ECC7ADF4E38
:100A0000ED42166A9188431B1D845C52216658246E
:100A10003671C56A0D2C869A239DE03543C97F4106
:100A2000BD8299ED7A26B2D3A6CE4F00E687E3D7F2
:100A3000682886F7CED2B3D31B0402B978B3ADE0F1
:100A40003C53A68A4A22BE1FCEB176F22F81A8C19E
:100A50007872B0156519E332A74D0CD300B9C327DE
:100A6000BE744DD1E10C36DD23FBA722D344CAB3BB
:100A7000081BB40D4BDF1AA69032925C1AA7CD85E5
:100A80002E351172F821357D3FDB298D30B34F456E
:100A90001477CF992FA39081B0AEE845E63AA9A28A
:100AA00062B7DBBE2539A5FCEAC5BC3AEC90AEA620
:100AB000FB12AAC76222AFA984B964B8FB8DC11C1E
:100AC000C3D0876D5CB4FE3FA4B8D889F40159BB8C
:100AD00004A543441ACB4130F75B9AEE28F44C71DD
:100AE00099CA4B7F2A13F04B54B3FC90EDBE483F9C
:100AF000F15E0DA1BB1E591615F04B504C96861B8E
:100B0000A9CCC2694E1003F0E953E5E2BB45E28D82
:100B1000AE407108864D08F49690585340A58B5B03
:100B20003CAD47B5D7E26A1378D4DCC9EC0E93F03C
:100B3000C01D953676A45385C9ACE4718DAF68614C
:100B4000209DFF45356E04D82732C3DAEEA2660435
:100B5000B72106527F398FFDEE9074B64FB6240E42
:100B60001248F0B230F2A54C9152E3C6487B389659
:100B7000239ED71B95153AC98B6F637D1DC9EA96D5
:100B8000E601D785C0EA3DCAD3B7FB07543A003126
:100B90003D74E4125BA238335BBF1DDC4EE8851068
:100BA00077ABEA6579B0AA3061C6F63BCC95FC8399
:100BB0007F8C7BB55205EBF721DE89B66DEE317780
:100BC00013AA935596086E1C82B57E95B994DD687C
:100BD000425C3A00C37B6F606A2C07D76C82FBB221
:100BE000812569D6720AD2E8500588491B6372993B
:100BF0006CE37AAEB01B9ED42554258A901797DFFC
:100C000039B87CEAF082DD25D2ADE7F6362384A937
:100C1000C96A53F4822C1DEA06C64F705437802AE5
:100C20006B63DBCC86E68C7F278C7254739E1BD65D
:100C30004CFA058280D7B71198000000000000062A
:100C40009869151CFC868774845BD40FDBD727C595
:100C50004AB28F297A4A230AB807D03470818E535A
:100C6000EF43163FA8A79E5A77C091B789155248FF
:100C7000C0B762ABE1746410AA096B97742179352F
:100C8000A19725FC78C1EC6E877740871A74828122
:100C900056DDEC37ADAF0331AC478574C02A459DB6
:100CA000F4120CF986B04A16D8116C46C44A6798FB
:100CB0008B1B42C2BEBB0E4884F708A6C38F8E8D25
:100CC000ABC29B5D5C6028578F0EAD2EC15E95292F
:100CD0009AF48A27D441BB4AAC5DB29326FD878142
:100CE0003F2735A6422C1538ADF8026F94DA08EE8E
:100CF00019D890FA89C3AD89FEC60246811D0C8DB4
:100D0000782FEED3ED6C7B95495687F4E263DA39A0
:100D1000CE681618ED98EE86F3B3C1121A519B57A0
:100D20001D199E987ED2FD3D2B5915467457791496
:100D3000817189D922DD9210D98991DF67006E53C4
:100D4000AFDAB528301E47E6B7052D22CF7F6ACD32
:100D500088906B8C16368807A1B7AFF331C4DB7669
:100D60008B969EF017A73F847891A8CD3F8FA5DD85
:100D70005214F9395D0B568E1C5A5B89EE809E33F6
:100D8000BDB145154234597820FC2DDBC92E0F35F5
:100D900026CF239B3E1D9F0F260EB7B54EACA286D5
:100DA000D5DA36045A73466A88C52AA083E88B5F71
:100DB0003CAF6A444E759B8F93373538BD029A1D00
:100DC0008429642597E07C2AB6CBC166513CBC3BA4
:100DD000F3552BB7BD81ECF349D5F803E0BDC60C44
:100DE000EEC01908FB4F8C94080EA53037F0B818E8
:100DF000937300BB5252B4980D4B45B9890A34E93C
:100E00001C245A8FA89DC2D927A9EEBFC08090BCD0
:100E10002A9343FB0AB396D1AE13410168B92C5310
:100E2000537C00A58441D6988898FEDEF7E23743CC
:100E3000620E9383EE030A8DCA8759366F61F7F409
:100E4000D6AB8B0F9C8396A46C4643806BEA50DC38
:100E5000D8CED4F4AE5BC6014385718D0C395EE407
:100E60003B2BC488B2C554960E879A5093D69C915A
:100E7000CA09648B23C429441A67E1DAC71B251702
:100E8000022C8F2A133ACFD665312B10F5B596DF99
:100E900001997BADD6B4C035A348E3B09EFE3310B4
:100EA0001A09AE3C0AA1728F0051E17823F5E2BF26
:100EB000A64628B34B24B1A1DEB1C4486FED5AD485
:100EC00061F0DBE1085C64C0CAE9A9DEDEECC06861
:100ED0005B6DBD43828CCA69B1A9C8710D5D6DA5FA
:100EE000AB1A6794EE0593E33FE81AE60F7F79F2B9
:100EF000CBC53757DFFC4FB460C7973C61B00C4699
:100F000064F44392D2A5F0F3B7DFAB20B1F5302AF9
:100F1000B3DC4B39B7853E1E1B948C26288045D602
:100F20000136D0EC934688D3D5895D7A82213EC2C2
:100F300040E3B4DEF5A569D569495C89CDAE13708F
:100F400070ED690CECC6FE75EB4ED6B3C860FB3491
:100F50001EF86492D929A813383D79C4BF21379D62
:100F6000E34F21E53F2C5C5F41FF148791E0820451
:100F70000B1E5553DC5640A43578E29B49222E09BE
:100F8000CD1F6F9483EEEA8BC4C210E080D9A55FB9
:100F900053349C8CEA95648794D6321CEB93BFE360
:100FA0005583C2F6FCC885B2945C425F6B8E3B975A
:100FB00079747EE35CC2631A22B17F94CBE7B7FFFA
:100FC0000E3795AF105317881272DDCBAB4B6B68A1
:100FD00024ACC95C72094FF1FB1DE7A230E9204B3C
:100FE000DA707C9EE234EB6A35C233D79D07B1EFED
:100FF000F675F5FDADC74BD0B7DDAE1E8D1EC03901
:101000009CA71CC5CC3950C66BC6DA37C7E120EBAC
:1010100074A53DC008FAC2DFF29E432BF077504919
:101020008CC32F68F32A9B831ADC05D8B77C3C61FC
:101030001176EC2DFE86088715A3C01CB46A8D9E20
:10104000BF9AD5C85B05181015FBC63CEEC5524BC0
:10105000313607B94C81EA83D782FEFC43594E20D2
:10106000BDD365CF1F5C711FBF26EC44EB017482BA
:101070003C8E60DF479031177E16C0EC1EC33A7A73
:101080005921A29B8E8725D3FE85DD6DE6D8CA74D3
:10109000BADB4230963D8622866FDE371A932F03E5
:1010A0002EE16E1662C1E12DFECBA8DF6405EF23B1
:1010B000BC71617B1B602227BDC6A37207AA09B061
:1010C00052F219154DBEAF263B4D62A63C41077A40
:1010D00034253CD6CDB65547871ECBCFCED20D9505
:1010E000C0D872A6E0332426517E71C7533FD4671F
:1010F0007352CB785A001115715F8D3CCF40CDD91A
:101100007430D9A13FC658BCBE7818319A3960BB3B
:101110008D7B3495A5F1543BB98599AFC445EB64FB
:10112000A76E5960EB1E7AFBFD924323F127AC6654
:101130001266288A5CF6C63F7604E80927ED05AA00
:1011400026E5B4AD40BAF7F484CB7F07108DB6C75F
:10115000D477EABA962A98F056D7FF504D59793D80
:1011600041E0FAA99D3EA6D979C80DD156C5ADD7A3
:10117000FB703CBDF3E95D1C5393331DF81BEE9FE0
:10118000B750AC8F485961C9859EC8B0D27439DF59
:1011900033F528E06311A7C405BD3AD934CAF9AACA
:1011A000E200E6E638573EEC197C0D2745C552C4EF
:1011B000FFF469C5F573734FE307C7CF38235B9C12
:1011C00099A26A72B03539C10AC71C1A3060181D5D
:1011D0002BF0C8F179A394E3363593690591071292
:1011E0006044FDB6C6FFE0CFA2CFC2A358AC32E345
:1011F0002EEC0D9D1BFB0540BA678ECB38D7609C4B
:10120000FE9EA170CC40728C8C507185DD84925C06
:10121000EE44B6E0801532DD1B4B8C6E8E3997A5FF
:10122000AFC6F42985D3859385C854E4591D4EA0D3
:10123000FEC507C1F73252F94D4585FCA0FA37B516
:101240009D47E852238D928743B4B84F951B1E4F9C
:10125000E545BFCEC80CB27DE7D92E88B72A61E13B
:101260002DC4212EB84DFD2187302511EC1F299466
:1012700031D292853817DA634D8CB4065564B76C59
:10128000FCC28D5D978609D34369E83577CCAF9171
:10129000363C7CA36E4E4AA2C94150EAABDF8704BC
:1012A000704F16F5A038F56016CD0CE5C7E3AD001C
:1012B000126B12853C5C7F76ED49F29D8FDFABE1CE
:1012C000DD8701ED2C1B4B55117FC392D391C1D803
:1012D000A737C7E55B482BED31DECEFB950000005C
:1012E000000000000008E35184000B4D2673118BB1
:1012F0001EE20000000000000000040473E072FF22
:10130000E659C900000000000448BFABF399877C90
:1013100007000000000004FB33B163616112AD00FF
:101320000000000008AA30AC174D3086BF6713F1EB
:10133000A70000000000000000041B48422384BBFB
:101340007FB4000000000008A69F43785CA14E8B8C
:10135000A6E67C49000000000000000001F7315DB6
:1013600027300000000000000000010B570B79F748
:101370000000000000000000024433BBB45BC70063
:1013800000000000000001ABE301C2D20000000039
:1013900000000000017A079EAD84000000000000FC
:1013A000000002F1EEF7D829500000000000000014
:1013B000012C35543ACC000000000000000001C9A7
:1013C0003D666A980000000000000005247AF71CC2
:1013D0002440EBA24DC266C8372C030FF301066D03
:1013E0009A42F0948FEDBFE3283B72693775B4A041
:1013F0009A6E31FD665BCBF3BA8CA431FFBA7C24C4
:1014000054D3C6638993E4EDDA58474EB58FD7932A
:10141000FDAF31EAB4ECC9057D2B1596C1007E8085
:10142000E6F747CD6A77F10E5913AA5C838870DC22
:10143000C4525220B6692D6C6C8B662ACD5A41304D
:10144000D6FB7BA0EC7A22887C716EAF6206F4A892
:10145000C688857636C5C0D867967CE84DD4FBA98A
:101460006F0FB2A7A3196A30FD6FFC2BCEA41B8EA1
:10147000574851C6980FE5087B4DFC59DDCF131B2B
:10148000310C5E3B98E1F4C341D7A2645E16F9EBE0
:10149000AE20E95D54BD99D3A7C1D9E53222D69FCC
:1014A0004FDD6B3C6DE94D965211DA2386BE01C4C7
:1014B00051C29CC6F52F1FD0F1F55782FECBFB4AD7
:1014C000DF1D0046B8A73A566608714E47F8272632
:1014D0005F6CD8C305990A758F4FC18872A05A13E3
:1014E00008A382842ECEB5A34605D66A7856442337
:1014F00086F2C963088BBDEE56D4361F375318E702
:10150000DA1CFAD005D55FE7B7AD362BCB06C05352
:10151000F432A8756FE3C9A1B0A6E6C2410F5D2EF3
:101520000A64504692495B2D002EB5213F0B4A714B
:101530009688844C98AA2823EBEF455C6278D6E421
:10154000FB6DC3D9356CB92AC67471C40C657CA314
:10155000F96E2DB986B0046394CF267D9E1EF7994F
:10156000DAE08CDD86F3C8F1C64E155DED34BB9034
:10157000CDD626091EF6238451C1AE428F8496C96A
:1015800057AE16363A298765B2BA5696D2F509EFA4
:10159000304A0F6236FE0030BD091B50C33C48D7AD
:1015A00025E18EB26F4D752DADC61EBAFA4F41AF13
:1015B0007A6FA0A04FB68834698A9E837A60F3A8B8
:1015C0007E392A209C325E7DC4AA97E6263542A148
:1015D000A0EF39B31C2763D27F75C01EB4FA4D7AD1
:1015E000818139E0792F94A5283A437E97B594AF4D
:1015F0002A10380A7F4991C06C659AC6C95DD552D8
:10160000469874AC93E421B0EB08FAF4412EA6F9A5
:10161000C5EDE33798C5DF528241A2F2561AF3A412
:10162000C6408DB95FAA751E151E68782B2BF43E37
:10163000C7CBF31360E0F48579880C227587B75126
:10164000E0D6E3A092D3D7E36C5B3EB780E748D601
:10165000D92F49CC75A004C94888E9CC3241AF30B4
:10166000DEC6BC9DF7FCFF69035058A1D6B87B5E6F
:1016700060FCCC0014AF3A3041B34E634795E4BDF3
:101680005374D0F002B4FE48196C3F23F79B441109
:10169000F2C245A637776C10630E1BA7D196CA0D10
:1016A0004F5B4351D614B723E799A49F4C7DD7DDF8
:1016B0000811844D5CE96090048B1490F06F26450E
:1016C0000F208CE36F4678EB12B45EF0DEEB22273E
:1016D00062784293BCE848C088BD0FDE232BD188D6
:1016E0000AE2B4338E6136435842AE6BD7F2FE0A3B
:1016F000C126947ACE8C3B435A62EF708AFE4DD25B
:1017000037DBA1B1061B30174CA0241EBECB64E210
:10171000CE135CD705A6763938F3852C160EB3E2C6
:101720003DFF79880B93EFAD55CDB4EF8FB8167AA6
:1017300005C05E920F4F9858D422AD4325317852A0
:10174000C69ACA5EA64E79979ABBDF6DF1E2D0B316
:10175000CA2A5C46825C1EDDD0C519892B2CBDC00F
:1017600084D9333967E4E47926B69D1C1DE470A55D
:10177000A76189254A57337D0DCAF3CC22AAD7D950
:10178000CBE6B29646159568D80FDF6B36DA19822C
:1017900016CE384ECFF236C880075388042FB214C5
:1017A000195DC56CEF959C608B6AE4FC9DB29CED65
:1017B0001D9C1BCAA326DD9C635B3B882BBA22358C
:1017C000240148EEA04F6E964E2991AAAF5647BD10
:1017D0007BDDA15599D8B5A147937BCD7BCF65DE45
:1017E0005018F20549F199D894213F7D52C6B1B401
:1017F000E19FF07E60648B30E4AD2C97FB47F709E6
:1018000001047BF4F7A7A804A57F0858796D262763
:101810006AD0D9AFC1C71223E1AE98A40FBC1BFA9E
:101820009D910B1515A524531A13E0C30095389C00
:10183000364CCFF6A9BCC1530604F46FBF57E0A6DF
:1018400014A649707F392A4A5A593633B90D4725AB
:10185000393704777C45AC19932549E07A7BA2C6D9
:1018600095768D3C79B1A7C38363032347D7ACFB3F
:1018700084166F22490B97AAD538575E2BBBA74910
:10188000EDD2D57A96BE8DF5F94656F52FA7A87AF2
:10189000FF3FE7E88CF148E846CB4D25F935932F1B
:1018A000CE8BB8A9C5D3D22771866F72D9CA4E9094
:1018B000D36DB13CD3CBC9303A26459D66445C5FBD
:1018C000D8E3907C1BD882DDD384D4C61B58BF02DA
:1018D000A53B100A3EE309940B99882B47A79089F2
:1018E000C4482536DB7231ACF5A30115D0E6216181
:1018F000EB5972DC94000098F7B0F9FAC10A7EDC6B
:1019000069CE905E82110B97E29955A23DFAEB8861
:10191000BC4DC2548D5FDEA3E248132046C5A081B2
:1019200004C42B9A8415B89E9B62A1EC7D083CAD43
:10193000214B89FCC6967C3A41358A13BD1B43BFB7
:10194000367A4ECE709E2AF63933C7334B347D2A11
:1019500081FA252EC5C4A1280ED54D15E069127156
:1019600019AAFF5948815653C935124D84699136D9
:10197000D8ADF754D58CF9C684126222F1B92B1D6B
:10198000A57C567A4D5AC4F09D8F5DB59A7FE7B716
:10199000A85D6D3700000000E4F2EA7A73F8FC6796
:1019A00017F3D960090E8B0FE2F98361DF5369D019
:1019B000EE4251B5514864F8DD3EEEA747F07C4B4E
:1019C000BB2B8EE28B6057634B9BAA6763EAA3D560
:1019D0007C4341A95474D286C3114269C5093E8F24
:1019E00094AFC599BBBBAC61646101F2D359B141FD
:1019F0005091166CCC9BEC5CFE3BB3EC6ED7F10EB9
:101A00005A8A5F1DB0C576542607BC66F0ED519A20
:101A10001FE8F751588E1E80991FEED643CCFA2F3F
:101A2000AE80F2A8A8AE437C8076D41AD4737461D9
:101A3000DFBF296F561593075892F11DE87B68B2F6
:101A4000542030012DC5D8FD6150140F584C1A5444
:101A500000127E46990C9DD1A304F18217FEFC1260
:101A6000E57581AFFF3D08D539874A8EF07AD4D02D
:101A7000D6CFA9D6594841C268E3A435458D141A7A
:101A8000C4000000000044892C63C8AF7BAC354320
:101A900027BE7ECF56403DA5AC0F97CCD46ED0313B
:101AA000D7146045AEDF0AAA33B388E01C26DC00F9
:101AB000B875C86711A1B58771F94A6AEC3F0E4144
:101AC00021C24F928F1753EED5EA4F9175025900FC
:101AD00000000294E4DA4AB3AAA72E9CC780465EAF
:101AE000BD06331DD85D9F5F77730A7D386BA70EE7
:101AF0008F4E7D01DA4474D2F17A2F7FE1ECF1A5AB
:101B00007D033B2F17B6E80D333C2191915B302CC0
:101B100011C6586AE4351BB5A847B3FFD0960E48E6
:101B20004E9737601204FFCBA5F51D409CDF36129F
:101B30003DD92A72DAE88BE45BCFE93852EC2CA06D
:101B4000F779AD2070592062739CE34609C912D41D
:101B50007755074B6A261E5D0778104E4ADA5EF607
:101B60003B9B8DFD48D0BBAA212EF5DF854CA71DE0
:101B70001A261BA082867F4B02D2F660C9860C1DF6
:101B8000BF736986184B44BC74E5821793B50A5637
:101B900008B74A73B804D214215E2CA0E0C2015FDA
:101BA000DECE642AD8652BF074E354BFA09B50BAF4
:101BB00002002C95CE2A4FCF2B2B0E9BDD8F675B1F
:101BC00054A1472E842E24FA34E05A103BCFAFE2C2
:101BD000ED28D1176B9A1B496CFCCB7A74092A410A
:101BE0005AFFA1F598C60CD26983D2C369875E7E7D
:101BF000BBFCC0D1C117D79BE15370B743D0382588
:101C00002649405B57BA4932AA9F39AA8E7300858C
:101C100013796DF1912F9EA3A0657C7D53B4705311
:101C2000016B925F38F1D73D7AD607727ADBA165F6
:101C3000A50741004BEBC5D03BEB3061420D4BA3F8
:101C4000D8078B12F5893D7CFB2E79A7BCD5BF72D6
:101C50009AD81539AD2570D16CB05DBBF43AF660F9
:101C600056FAF2A528AE0D76B379F14BC72E6EB6B3
:101C7000616222D9A730234521DE478CEBE54C8BEE
:101C80004E79A09D95B305AAAFECE67473F0DC37EE
:101C9000AD933B206DA1D8CFF97E9EC6BB40645664
:101CA000A6187528D2BA78645C484570358C499A74
:101CB000454A6DF29C8D480A612EE3D4EEA8294076
:101CC0004B53BB5639CE816CFD37A0791CC7941796
:101CD0006C37EA97F4D8D49F9F304FE5A408B86BCF
:101CE000AEB9BC4F612044DF92DB1E0483C0A12C3F
:101CF00009D8DF21F0200480AF7391BC0EBAE4F75D
:101D00009B363C30F1B4BADCFA65F22B1D184E1646
:101D100062D4AC8B21A5A2F132C3C965632D316BAE
:101D2000B88FE12493870499E6BDBA283063DAAC12
:101D3000C799378A8666B344D584AAA15342A0388E
:101D40001E5DF70529E7CA2A0B6AABCEF03AF3907D
:101D5000E6D125A1331C33997D24D17423FC6F7DFA
:101D6000DBA7E9C2DE17122D1CB37E88000000003D
:101D700000000308757D9A4937AF60047CBCD31C12
:101D800053703497EBE1CD3079A28694585A99C2BA
:101D900069D7B232626C0A3669B1354841CE79965C
:101DA0007A0D2D33BF4D2FB8D8B3FBE47193B9181A
:101DB0000D51ABBB09D90DD7671E4728C7F7CE60B9
:101DC0005828235E95FC2BDBF90D1FAB49E6D0A705
:101DD000377920E4CF05E36421ACDFB1E8F9E04CCA
:101DE0003B5E89682A48C5640EDBF1538B1A2FF6D7
:101DF0000C189C529B212E4AE7D6BBB71A0A22AB7D
:101E00004AFDD3027D21FFB90E0F29ABACF4445E2D
:101E10000FD5F357E54F61724EBA55378F9A1CD4E0
:101E2000B830AF0A951A1386D40A835C991B2BC06D
:101E300093F513F5EAFB6F75746C2E77C344C538C0
:101E400062B9F5AC58B4966EA4A545B51B7C9D212E
:101E50009516EE29572012BBF80A2325AC51FD7ABE
:101E6000E09D43B0276F2ADF0408D3F11D3C128D9B
:101E7000AFF2D7B9029D46E3ABFF61C8612B19C829
:101E8000C1A16D0AA744FAB5A8D71E53156F7A48A9
:101E900041E930B5ADE2F070406AF331DD1950E54B
:101EA000BCB43D839FDFC8252790405B3204478147
:101EB000FA53B40A40157A745BDB24AB3AB791E36A
:101EC00044B747073990D2F5A9084658DC3210A329
:101ED00047320445441371AC2EA7C971D0F9517E25
:101EE000CAE509A81E775B3A08AA431CD68D609103
:101EF000466D64569E162ECEB399C8F655271384A8
:101F0000BC8AB3C8F51A72F76A0C46952F4A86B692
:101F1000D29894F1C3370E0C8711567EAFDA22297E
:101F20006FEBFAEC96E0276B42A170091AAD488876
:101F3000DAFCE13B62952856702803B258678D0A97
:101F4000EA9A1595515F83070920BF37AFF70A74E6
:101F50003CA552F1E3F55830E117DE98F1387BF0FB
:101F6000AFBD165952996C7470487714FF53418471
:101F7000BCC5372F71843DF5467C63E000A0560751
:101F8000F78C6357BE545CE1FDAC35FAC2D5F25A0A
:101F9000BE7C318EBDDBFE4D036F5EA61F232DCAB6
:101FA00068F0C614CCC33EF021D4402A72B67EE25B
:101FB00085D68AFB48512777E4CBCD2FF6E1BCFECE
:101FC000EDA1145FE532FCCFD9FB2FE9AD7D2D6883
:101FD000E79A15956A4AE4ABE4EBE00D40BDEF8F5C
:101FE000B975B439086DC09F04FFCCDE13304EB60E
:101FF000E4E0CB69E5C61C2F436A632572D5DFBDDB
:10200000DC0BE9089D3D266FC389F818AC42BF4E32
:102010009D5D28B0264136768D8684FAD8D46758DF
:102020001969202D35FE09D98CFDF921A157DF173B
:10203000AE8ECBC97F2654DE104372DDBC18B93496
:10204000F9AB70F9744D8E6D2A331406D071E6AD7C
:10205000AABE862E9A8D8788AF039FCBF8789A66A2
:102060003809CDAE89C2CCAF6A16140948AE9B556B
:10207000E40FA586A1757F7CEF0DCB3AB30D1F024F
:102080000000000C801FB4F4E0A641CC8700406142
:1020900043E7FCB40000000124CA4534253C39FF65
:1020A000098C39855A5BCC273CBD28438645179A55
:1020B0004E3524A423A2FDCA6CD4FBBAE741B3FB7E
:1020C0007C5507B56E3EB12972CC38EA273080B90D
:1020D0008CB8EE54AB3EDBDD06D095EA3E42886B11
:1020E000AE89C7E84C38B693F6BE4C204A8CCE2B4E
:1020F00022D272494618568070675AFAC0CA6D5388
:1021000021CAE3866891D37CA9D5AD6A72A1FE533A
:10211000E94085EA62A963753A2DEC9BFE58D873B5
:10212000205210435C2DB421B9961F726DBA42EA59
:10213000F285BE5212A7B13E2B89EF0F73057C9931
:10214000C3C55F9653F8AF9B7A49A044546055F0DD
:10215000103A608D905065AEF779DB2E08F9BBF22E
:10216000D278D086B594A10EB98189B7F9C043E879
:102170008F3819DAED2FA75CDB01B338CEE6C3F256
:10218000D5AA879E116FD805F072ABD9A10FFF4673
:10219000E94A8C0093E9866F6B1470BEB1B889C9A7
:1021A000CC7D1A11D279FBD9D72413948F019C4B83
:1021B00069336601829888F84C13310F58C10611B3
:1021C0003000000000B48991349B89FC75CD11CAA0
:1021D0001A6FFA71D645E70FEB3909B35A131FAAE4
:1021E0003A93CF8D6ECAEC2C8EC5831B5AD6D189FB
:1021F000AC024FCB0F257696E05D2CFFA7EAEA9262
:10220000F1725BEE08D8848AA959E31277DAD6CA4C
:102210004E362D7CA413D1E818319902540AD07A95
:1022200074A0AD2C834A6FF1B1501B6469E8842F10
:102230002CC8EB953DA518C74B82FC88E1D37B0EDB
:10224000BE10BA6502859B469A377A774DC2C45351
:1022500030679154F63D39444342132E0929FD500D
:10226000A6DA94CE8697102B5C1C09CD0FFC15DCEA
:10227000543B53E17CA7E1FD47C2AF7EEA34000046
:1022800000000C6FE65C04306C84C751E3B55F342A
:102290009EDD05000000000C1CD4BCFBCD3AAEBC9A
:1022A000529254852CED0FFB00000000F873105D76
:1022B000D81F06E0A15926B4393FC119F9D4BE4F41
:1022C000F433EC3F3FFE8F91D044F21278909E7928
:1022D000A927EE05CB9F5A4B15DE6739181FE73A41
:1022E0000A4198E7DEA728A0D354663379B53A832C
:1022F000375F25407047B8796B62963F48EA9F6E1A
:10230000CB35E16F2DC4C24B9BA74D05790E1CFE4A
:10231000095A9F87227A131B9F994D05DB1573D8A5
:1023200065FE395EA4437B6C79BD73914C9B4C94E4
:102330001887EA68A7449F5C3666FD41145EB18E3B
:10234000EB45DA770EE0EC5EF40DBF41C648F015C0
:10235000D860F74076237B1CE559445030CE064EBA
:10236000C5A670C31817A237ACBF2C6FBC9B3F58D3
:10237000121110390018DB7D0BD22CEE0AAF7694C7
:102380007AC15C21D2619F1D7A9695DFA45181E6C6
:102390001BD57C3644F060FF3AF632EC8FE09AC7EA
:1023A000E3BCADEBA694714B6D000000000000385B
:1023B000974C36A275FFFB3FEB60E131B1BC327741
:1023C0006CBD49934BC207BAF067FD68CAF5A4FF1C
:1023D0002A5EE2BEB569B2A063931BB4BD4612FA91
:1023E000EE885F46DFB2BAE8BA5447EA000018FA4E
:1023F0000891779B1C878B01709EC0052BAAD7AFD5
:1024000030A8018B28A0F59599325F0000000000EC
:102410000008C4EF65453CC36DEFB8349D1C000057
:10242000000000000000046686F2BC9D8797BE0095
:102430000000000008DD58DD530F7DEC930BB95B05
:10244000E30000000000000000087615DFC7682FD9
:10245000A8F84D338FAE0000000000000000088493
:10246000C3E8CB9C718009D71163210000000000F4
:10247000000000040EC6F0509E0AA799000000005C
:1024800000149A5AF9AA5F06DF5C52374B390C7E6A
:1024900018C1ABD636F578BD9F790000000EF23337
:1024A000610EC30B5A24023F42353DA4ADC53050E6
:1024B000000076E7E34508661821EBDD1476F8F1B5
:1024C00055E83B9D8B9392FFA7803438C2AD7CFFCB
:1024D000BD232B0B2C5FEAC09500FB8C376B8A4227
:1024E000913EEFD65143216F803EBDF2B32407A544
:1024F000924A76513172354725E7B9D0F4C2DD52A0
:10250000353A23C416FA2A8D99D0B953C2125C3FCA
:10251000CE8DDBD1C8D159E588FF4911ABAB7BD15A
:10252000F2B43749A0B1FEFE6C08761D0B00000026
:102530009AF4B16DA0F220E417A74D85B38E7ACB43
:102540008730AF119020A819EA2207FAC14CE8FCA5
:10255000A2038F2AC536E4AF669BBA0ADD6590DA1E
:10256000D72762D9193BABF666892DA53070E9AA49
:10257000E2D9C12347FD9A254A5F896297614B9151
:10258000FC341BFC97B27B87F454FCD63648C287D8
:1025900079A3C48F42B13147DDE8D00A714722F3F5
:1025A000F49F287A700CBC5930E0E4132465BD4CCC
:1025B0000E6D9E4D15901972C928B6950E92F97937
:1025C0005C64B9B97BD7DCB4B9B4967F7255AE0000
:1025D000001EB0028E45BDF0A590B7301240B64047
:1025E0009CF16263726DF0BA1AF6F0406A47A2FC81
:1025F0009BD87019000000000000001AF524F64D69
:102600002F64FDF7C3FDA7455D94318FD69F5D21F3
:102610006641D43951AF618C1E9F00000000061145
:10262000E97A8831E126B61C7400000006F5983579
:10263000171AAB193A8CC60000000E7E14D06E44F7
:102640001C666167F18E287230D2BF7D6F00000872
:10265000179962EE7818543AD57F61AC00000000FB
:102660000000000010833E2C924F5A985997FB822D
:1026700097ADC873A26C0D06CF00000000000000EB
:102680000A69DAEB9EF7677FDEE8830B465A3F0064
:10269000000000000002B3607FDCA3FF0000000028
:1026A000000000148ECFA26572CE3E11392D949495
:1026B000478EC78C706B7C498E3CD74C0000000263
:1026C000C877A5FDBA9A000000000000000A1A1B96
:1026D000D94A8303DFE2756E28D9631F000000002A
:1026E0000000021827278F4BE700000000000000C1
:1026F000000000A902C8A1AD308D14000000080040
:1027000002010000030407000000000000000000B8
:10271000000000250028002B0000000000240027F6
:10272000002A000404040404040404020202020255
:102730000203030303030301020408102040800185
:10274000020408102001020408102000D1301124D6
:102750001FBECFEFD8E0DEBFCDBF13E0A0E0B1E0F9
:10276000EAE4F5E702C005900D92AA3AB107D9F75D
:1027700025E0AAEAB3E001C01D92AD3DB207E1F742
:1027800013E1C7EAD3E104C02197FE010E94893A10
:10279000C63AD107C9F70E948B310C94A33A0C9426
:1027A000000091E09093A5048093C7041092A604C2
:1027B0001092C80408950895089590936904809331
:1027C0006804FC01228121111AC08285809367046C
:1027D00080EE96E19093700480936F0410927204DF
:1027E0001092710480E096E190936C0480936B04E6
:1027F00010926E0410926D0410926A040895109263
:102800006704E6CF82E480937C0080917A00806444
:1028100080937A0080917A0086FDFCCF80917800C9
:10282000909179000895AF92BF92CF92DF92EF928C
:10283000FF920F931F93CF93DF936C017B018B016A
:10284000040F151FEB015E01AE18BF08C017D107BA
:1028500059F06991D601ED91FC910190F081E02D44
:10286000C6010995892B79F7C501DF91CF911F9199
:102870000F91FF90EF90DF90CF90BF90AF900895B1
:1028800090E0FC01E550F94D2491FC01E95CF84D24
:102890003491FC01ED5DF84DE491EE23C9F0222363
:1028A00039F0233001F1A8F4213019F1223029F157
:1028B000F0E0EE0FFF1FE15FF84DA591B4918FB7E7
:1028C000F894EC91611126C030953E233C938FBF64
:1028D00008952730A9F02830C9F0243049F78091B5
:1028E00080008F7D03C0809180008F77809380006F
:1028F000DFCF84B58F7784BDDBCF84B58F7DFBCFF1
:102900008091B0008F778093B000D2CF8091B000DB
:102910008F7DF9CF3E2BDACF3FB7F89480913C04FE
:1029200090913D04A0913E04B0913F0426B5A89B30
:1029300005C02F3F19F00196A11DB11D3FBFBA2F51
:10294000A92F982F8827BC01CD01620F711D811D11
:10295000911D42E0660F771F881F991F4A95D1F796
:1029600008958F929F92AF92BF92CF92DF92EF9293
:10297000FF926B017C010E948C144B015C01C1141D
:10298000D104E104F104B9F00E948C1468197909AA
:102990008A099B09683E73408105910580F321E017
:1029A000C21AD108E108F10888EE880E83E0981E6B
:1029B000A11CB11CE4CFFF90EF90DF90CF90BF90AF
:1029C000AF909F908F9008958091740590E0FC01E6
:1029D000E95CF84D24918D5D984DFC01849188232C
:1029E00099F090E0880F991FFC01E75EF84DA591E2
:1029F000B491FC01E15FF84D859194918FB7F89403
:102A0000EC91E22BEC938FBF6AE070E080E090E005
:102A10000E94B11460E0809174050E9440146AE045
:102A200070E080E090E00E94B11461E08091740554
:102A30000E9440146AE070E080E090E00C94B114D1
:102A40002FB7F894609138047091390480913A045A
:102A500090913B042FBF08950895E0916F04F09189
:102A600070042091710430917204A90141705527BE
:102A7000309719F44115510579F035952795820F56
:102A8000931F452B41F0DC012D913C91E20FF31F88
:102A90000190F081E02D099581E090E00895842F68
:102AA00080950895E091D504F091D6040994E091C1
:102AB000D704F091D8040994E091D904F091DA0494
:102AC0000994CF93C82FE0913504F09136043097E4
:102AD00051F090914204809140044C2F6091410448
:102AE000890F0995C82F8C2F0E94571581110AC094
:102AF0000E9452150E945C1580E40E9457158C2F8D
:102B00000E945715809140048F5F80934004CF91BD
:102B100008950E945C1580E00C9457150F931F9345
:102B2000CF93DF93082F162FD0914404D80FC09174
:102B30004304C60FC770C06B0E9489158C2F0E947A
:102B400057158D2F82958F7080610E9457158D2F9C
:102B50008F700E9457150E945215009342041093E3
:102B6000410410924004DF91CF911F910F9108957D
:102B70001F93CF93DF93C0E08091D301C817E8F48F
:102B80006C2F80E00E948E158091D20190914204BA
:102B9000182F191B81F0809342040E945C1580E479
:102BA0000E945715D0E080E00E946115DF5F1D1381
:102BB000FACF0E945215CF5FDFCF60E080E0DF9157
:102BC000CF911F910C948E1580916A0401C0660FFD
:102BD0008A95EAF790914104960F90934104809171
:102BE000D301482F461B550B9417150621F01CF0F6
:102BF000861B809341046091410480E00C948E1503
:102C0000AF92BF92CF92DF92EF92FF920F931F93FA
:102C1000CF93DF93A0916804B091690412961C9140
:102C20001297C62FD0E011110DC014962C91149755
:102C3000AE01421B51091896ED91FC911997E40FD2
:102C4000F51F14911396BC9000916704E12EF12CAE
:102C5000409142042091D20130E02E193F094217E1
:102C6000130621F01CF06B2D0E94E41580914204A4
:102C70008E0D9F2D911D800F911D2091D20128173F
:102C800019060CF400E0A0916804B0916904149650
:102C90008C911497C81BD109A9F012968C911297A8
:102CA00013969C911397492F50E0882311F1899F27
:102CB000C00111249E01289FE001299FD00D389F5B
:102CC000D00D1124AB2C0E945C1580E40E94571596
:102CD000CE01282F2C1B211708F441C0CE0DDF1D7B
:102CE000D12C0D1509F44DC080E00E946115D394DC
:102CF000F8CFBE01F4E076956795FA95E1F730E0FC
:102D000020E090E080E06217730781F06901CC0C4D
:102D1000DD1C1696ED91FC911797EC0DFD1DC590ED
:102D2000D4908C0D9D1D2F5F3F4FEDCF9E01207FD6
:102D30002C173D0760F41896ED91FC911997E20F5E
:102D4000F31FE4918E0F911D2F5F3F4FF1CF849FB2
:102D5000E001859FD00D949FD00D1124B3CF6C015D
:102D60004FEFC41AD40AE0916804F091690401900D
:102D7000F081E02DE80FF91F84910E946115C601D2
:102D8000A8CF0E9452156091410451E06F5F80917D
:102D900042045A1528F06B1980914204810F800F6C
:102DA0000E948E15AA94A1108ECFDF91CF911F9112
:102DB0000F91FF90EF90DF90CF90BF90AF9008956C
:102DC0006D3039F1E0916804F09169046A3019F4CA
:102DD00063810C94E41524816217D8F025812617AD
:102DE000C0F020916D0430916E04A901559547956E
:102DF000840F951FE0916B04F0916C0420FF08C0D4
:102E0000DC012D913C91E20FF31F0190F081E02D48
:102E10000994089520911204260F3327331F21327D
:102E20003105ECF420919F04FC0190E080E0243017
:102E300069F082E00895A09112042191AC014E50F6
:102E40005C4FA40FB52FB11D2C930196861798F3F4
:102E500080911204680F6093120480E0089581E06D
:102E6000089510929F0481E080939E04109279044B
:102E700061E082E10E94401461E083E10E9440141D
:102E8000E9EBF0E080818E7F808380818D7F80837D
:102E900088E48093B80085E48093BC000895109284
:102EA0007804109277041092A6041092C8040E942D
:102EB00031178BED93E190937604809375048CED3C
:102EC00093E190937404809373040895CF93DF93F8
:102ED00091E09093F1038823B9F0C091B800D091AC
:102EE000BA008091BC008A7B8093BC0060E082E1E4
:102EF0000E94401460E083E10E9440140E94311758
:102F0000D093BA00C093B800DF91CF910895CF92CB
:102F1000DF92EF92FF920F931F93CF93DF93D091A5
:102F2000C80481E0D13208F09CC0C091C7040E945F
:102F30008C146B017C0180919F0481116CC082E034
:102F400080939F0481E080939E048FEF80939D0483
:102F500010929C04D0939B04A7EAB4E0EBE7F4E062
:102F600080E0D8138DC010927A0480917A04CC0F3F
:102F7000C82BC0937A0480917904813009F084C011
:102F8000109279040E948C146B017C0180917A0468
:102F90008093BB008091A1049091A204A091A3040E
:102FA000B091A404892B8A2B8B2BA1F00E948C1446
:102FB0000091A1041091A2042091A3043091A404D3
:102FC0006C197D098E099F0906171707280739070D
:102FD00008F442C08091BC0083FDD8CF85EC80937B
:102FE000BC000E948C146B017C0180919F04823094
:102FF00009F44CC080919D048F3F09F469C0809111
:103000009D04803209F466C080919D04803309F4E8
:1030100063C084E026C08091A1049091A204A09195
:10302000A304B091A404892B8A2B8B2B09F483CFA2
:103030000E948C140091A1041091A2042091A30479
:103040003091A4046C197D098E099F090617170792
:103050002807390708F06FCF8091A0040E946617F7
:1030600085E01092A6041092C8041092A504DF9186
:10307000CF911F910F91FF90EF90DF90CF90089527
:103080009D9191938F5F6DCF85EEA9CF8091A10423
:103090009091A204A091A304B091A404892B8A2B3F
:1030A0008B2B09F4A2CF0E948C140091A1041091E3
:1030B000A2042091A3043091A4046C197D098E0907
:1030C0009F09061717072807390708F08ECFC4CFC6
:1030D00080E0C7CF82E0C5CF83E0C3CF0C948717D1
:1030E0000895E091780480917704E81730F4F0E0D7
:1030F000E95BFB4F808190E008958FEF9FEF08958B
:1031000090917804809177042FEF3FEF981748F45F
:10311000E92FF0E0E95BFB4F208130E09F5F909367
:103120007804C90108958091770490917804891BEF
:10313000990B0895CF92DF92EF92FF920F931F9316
:10314000CF93DF937C01CB018A012091A504222338
:1031500089F0EB016B01C40ED51ECC15DD0569F0BD
:103160006991D701ED91FC910190F081E02DC701AB
:103170000995F3CF642F0E940A17C801DF91CF9100
:103180001F910F91FF90EF90DF90CF900895CF9314
:10319000DF931F92CDB7DEB769832091A504222368
:1031A000F9F02091C804203258F021E030E0FC0111
:1031B0003383228390E080E00F90DF91CF910895D8
:1031C0008091A604E82FF0E0E955FB4F99819083A8
:1031D0008F5F8093A6048093C80481E090E0ECCFD9
:1031E00061E0CE0101960E940A17F7CF682F89ECA3
:1031F00094E00E94C71821E0892B09F420E0822F77
:103200000895682F89EC94E00C94C718CF92DF9250
:10321000FF920F931F93CF93DF938C01EB010E94DA
:103220002015607F7370F801A081B1819D012F701E
:103230003327AD01407F5370FB2EF694F694F7E0F0
:10324000FF15F8F089B190E00F2C02C09595879595
:103250000A94E2F781706417750708F47C5F6B01CC
:10326000C41AD50A2730310508F5F901E65CF64E97
:103270000C94893A5319581999195D1980198919AB
:103280009219EF2DF0E08DE08F1548F083B190E0BA
:10329000389702C095958795EA95E2F7DBCF86B11E
:1032A00090E03E97F6CF882309F44BC080E00DC034
:1032B0008823E1F130E020E0F9CF811146C090E4AD
:1032C000C91691E0D90608F044C0AA27BC7FA22BFA
:1032D000B32B407F53704A2B5B2BF8015183408303
:1032E000882309F440C0209709F441C06F2DFE01E6
:1032F000DF91CF911F910F91FF90DF90CF900994B4
:1033000081112CC0E0E3CE16D104F8F2AB0187E0C6
:10331000DCCF24E030E08823C1F2AB0122E030E0D2
:103320008BE0D3CF22E030E08111CFCF23E030E03B
:10333000CCCF8823B1F0F0E4CF16D10408F0BACF97
:10334000B5CFAB0121E030E0C0CFAB0126E030E0EB
:10335000ADCFAB0124E030E083E0B7CF25E030E033
:10336000A5CFAB01B2CF2330310508F088E0DF9163
:10337000CF911F910F91FF90DF90CF900895E09132
:10338000EF03F091F0033097A1F01082E091ED038C
:10339000F091EE03309709F009951092E90310922D
:1033A000EA031092EB031092EC031092F0031092D8
:1033B000EF030895833009F481E00895FC018081D2
:1033C000280F261714F440830895421714F0208321
:1033D000089560830895282F41E060E080EC91E03B
:1033E0000C94DE19282F41E060E087EB91E00C940B
:1033F000DE19282F41E060E08CE991E00E94DE199F
:10340000F894E1E6F0E080E8808380919C0180837D
:1034100078940895282F41E060E081E891E00C94D1
:10342000DE19CF93282F4DE765E088E791E00E94F1
:10343000DE19C0917801CC0F0E94891581E80E94A5
:1034400057158C2F0E945715CF910C9452150C9440
:103450002D158091CF03811103C086B180958170B5
:1034600008950E9420156093D5057093D60580932A
:10347000D7059093D8051092D1031092D0030895E8
:1034800089B199B1E091C005EF70869586958270FB
:1034900092FB992790F9892B94E0E99FF001112480
:1034A000E450FE4FE80FF11D87FDFA95808180936F
:1034B000C005807359F0803151F08FEF9FEF9093EA
:1034C000E3038093E20381E08093CF03089581E0DA
:1034D00090E0F5CF80913C01882329F090913C0148
:1034E00081E0943008F080E008950E946A1A81110A
:1034F00003C086E090E008958BE090E008950E947C
:103500006A1A8823C9F080911801E0911801EE0F22
:10351000FF0BEB59FD4F87301CF08081918108959E
:103520004081518128EE33E0429FC001439F900DBE
:10353000529F900D1124089580911801873014F046
:1035400010921801E0911801EE0FFF0BEB59FD4F9F
:10355000E4CF8A30910568F08436910568F0883EA2
:1035600023E0920760F08031974260F085E090E0C0
:10357000089581E090E0089582E090E0089583E06E
:1035800090E0089584E090E00895CF92DF92EF926A
:103590000F93CF93DF93EC01EFEFE40F0E2E000CAF
:1035A000FF0B8AE0C82ED12CE7FD0BC0CB01B60182
:1035B0000E94203ADE01AE0FBF1F805D8C933197D1
:1035C000F3CFFE01E40FF11D1082222389F0822F38
:1035D00090E0AF014C1B5D0B4817590724F0308178
:1035E00031833197F6CF8C0F9D1FFC010083422F52
:1035F000415080E050E0E82F082E000CFF0BE4174C
:10360000F50744F4EC0FFD1F9081903319F48F5FA0
:10361000E082F1CFDF91CF910F91EF90DF90CF90CB
:103620000895009769F02091010130910201281757
:10363000390731F090930201809301010C94DD135E
:1036400008958CE30E94D11381E008950E944F17E2
:103650000E94211B0E946E18882339F06AE070E0F6
:1036600080E090E00E94B114F3CF0895089590E0B7
:1036700080E008958F929F92AF92BF92CF92DF9297
:10368000EF92FF921F93CF93DF93D82F162F0E94B4
:103690008C146B017C0180919F04811166C0C12F45
:1036A00081E080939F0480939E049FEF90939D04FC
:1036B00010929C04910F90939B0480937A048091C4
:1036C0007A04DD0FD82BD0937A048091790481306D
:1036D00009F082C0109279040E948C146B017C0165
:1036E00080917A048093BB008091A1049091A20400
:1036F000A091A304B091A404892B8A2B8B2BA1F059
:103700000E948C148090A1049090A204A090A30425
:10371000B090A4046C197D098E099F09861697063E
:10372000A806B90608F442C08091BC0083FDD8CF3A
:1037300085EC8093BC000E948C146B017C0180910D
:103740009F04813009F44AC080919C04811710F4D1
:10375000C0919C04ABE7B4E0E7E4F4E080E08C17B0
:1037600051F19D9191938F5FFACF8091A104909137
:10377000A204A091A304B091A404892B8A2B8B2BC3
:1037800009F489CF0E948C148090A1049090A20427
:10379000A090A304B090A4046C197D098E099F0920
:1037A00086169706A806B90608F075CF8091A00482
:1037B0000E946617C0E010927804C09377048C2FA3
:1037C000DF91CF911F91FF90EF90DF90CF90BF904E
:1037D000AF909F908F90089585EEABCF8091A1041C
:1037E0009091A204A091A304B091A404892B8A2BE8
:1037F0008B2B09F4A4CF0E948C148090A10490908C
:10380000A204A090A304B090A4046C197D098E09B1
:103810009F0986169706A806B90608F090CFC6CF6E
:10382000CF93DF93CBEAD4E0CE010197F1F761E0CB
:1038300070E08091690590916A050E943A1B89ECBD
:1038400094E00E94801887FFEFCFDF91CF91089519
:103850000F931F93CF93DF93182F092FEB010E9433
:10386000101C809169050E94D11382E190E00E94B2
:10387000011990E080E00E940119602F89EC94E02A
:103880000E94C718612F89EC94E00E94C7186D2F21
:1038900089EC94E00E94C7186C2F89EC94E00E9498
:1038A000C7180E94871783E998E00197F1F7DF9125
:1038B000CF911F910F910895CF93C82F682F70E07B
:1038C00080E090E40E94281CC093BC05CF9108952D
:1038D000282F41E060E086E691E00E94DE198091A9
:1038E0003C01843059F48091660162E0811101C08D
:1038F00061E070E080E091E10C94281C0895282F8D
:10390000220F4AE56CE08FE691E00E94DE1980917B
:103910003C01843099F080916F0194EF980F9F34AF
:1039200068F480937F0524E531E0829FB001839F96
:10393000700D112483E091E30C94281C0895282F26
:1039400040E260E08BE491E00E94DE1980913C014E
:10395000843039F060914B0170E082E093E30C9485
:10396000281C08950E94101C809169050E94D113A3
:1039700082E190E00E94011990E080E00E9401192C
:1039800061E089EC94E00E94C71861E089EC94E062
:103990000E94C7186091B90589EC94E00E94C7188D
:1039A0006091B80589EC94E00E94C7180E948717BF
:1039B00083E998E00197F1F70895282F41E060E04E
:1039C0008AE891E00E94DE190E946A1A882351F069
:1039D0008091B90590918A0190FB85F98093B90592
:1039E0000C94B21C0895909193018091B80599238D
:1039F00029F020913C0191502330A1F4E091050180
:103A00002E2FEE0F330BF901EE0FFF1FE20FF31F06
:103A1000EB56FD4F2081222321F0245091E02230EB
:103A200008F490E09295907F8F70892B8093B80571
:103A30000C94B21C282F42E060E083E991E00E94E0
:103A4000DE190E946A1A81110C94F31C0895CF9319
:103A5000DF93D82FC92F0E94101CD0938805C093E4
:103A60008905C0938B05D0938C059091BE05992351
:103A700061F080918A059295990F990F907C8370DF
:103A8000892B81608D7F80938A05809169050E94D2
:103A9000D1136091750589EC94E00E94C71860917C
:103AA0008A0589EC94E00E94C71860918B0589EC27
:103AB00094E00E94C71860918C0589EC94E00E9404
:103AC000C71860918D0589EC94E00E94C718809119
:103AD0007505803431F460918E0589EC94E00E9484
:103AE000C7180E9487170E94101CD0937A05C093B4
:103AF0007B0560916B0570916C0590E080E0DF9133
:103B0000CF910C94B1148091BF0587FD07C061E08F
:103B10000E9440148BEA94E00197F1F70E94101C78
:103B2000809169050E94D11381E190E00E94011902
:103B30000E9487178BE097E20197F1F70895CF93E2
:103B400090917505903459F5873048F5C82FCF709E
:103B50000E94101C809169050E94D11382E190E0BF
:103B60000E94011990E080E00E94011961E389EC54
:103B700094E00E94C71862E089EC94E00E94C718A4
:103B800061E089EC94E00E94C7186C2F89EC94E006
:103B90000E94C7180E948717CF910C94101CCF91D8
:103BA00008951F93CF93DF930E94101C80916905A5
:103BB0000E94D11381E090E00E9401196091BA0542
:103BC00089EC94E00E94C7186091BB0589EC94E0F1
:103BD0000E94C7180E9487170E94101C60916D05F3
:103BE00070916E0590E080E00E94B1148091BF0555
:103BF00087FD07C060E00E9440148BEA94E00197C3
:103C0000F1F78091800581111EC0C0918305D0918C
:103C10008405BE0181E092E00E94281CD0938405B7
:103C2000C093830510918705C0918505D0918605C5
:103C3000BE0182E092E00E94281CD0938605C093CA
:103C4000850510938705DF91CF911F9108951F93EC
:103C5000CF93DF93C091420181E0C11103C080E0A6
:103C6000C0E003C0C230E0F3C15090917505D8E2C6
:103C7000903221F0D8E4903509F4D8E510E080FBCB
:103C800010F90E94101C809169050E94D1136D2FBC
:103C900089EC94E00E94C718612F89EC94E00E949F
:103CA000C7186C2F89EC94E00E94C7180E948717F0
:103CB000DF91CF911F910C94101C282F45E260E0FA
:103CC00082E491E00E94DE190C94271ECF93DF93CB
:103CD000809175058032A1F1C091AE0186EFC802D6
:103CE000E00111248091D3039091D403C81BD90B18
:103CF0000E94101C809169050E94D11382E190E01E
:103D00000E94011990E080E00E94011961E089ECB5
:103D100094E00E94C71860E089EC94E00E94C71804
:103D20006D2F89EC94E00E94C7186C2F89EC94E009
:103D30000E94C7180E94871783E998E00197F1F75E
:103D4000DF91CF910895FF920F931F93CF93DF934D
:103D5000182F80917505803251F0C8E0D0E002E460
:103D6000803441F0C6E0D0E002E5803519F0C8E0CB
:103D7000D0E002E20E94101C110F127080916905C0
:103D80000E94D113602F89EC94E00E94C718612F24
:103D900089EC94E00E94C7180E9487170E94101CAB
:103DA000BE018091690590916A050E943A1BF12C31
:103DB0000F2D10E00C171D0754F489EC94E00E94BD
:103DC0008018F801E956FA4F8083F394F1CF80917F
:103DD000970586FDE3CFDF91CF911F910F91FF9063
:103DE0000C94101C81E00E94A31E80919A05909172
:103DF0009905EAE7F5E08083918308958F929F9279
:103E0000AF92BF92CF92DF92EF92FF920F931F93E8
:103E1000CF93DF93CDB7DEB728970FB6F894DEBF08
:103E20000FBECDBF88E08093B8000E94831D0E9422
:103E3000101C809169050E94D11381E090E00E94DE
:103E400001198FE190E00E94011985E090E00E9445
:103E500001190E9487177E0129E0E20EF11C0E94E1
:103E6000101C68E070E08091690590916A050E94DD
:103E70003A1B8E010F5F1F4F89EC94E00E9480185F
:103E8000F80181938F01EE16FF06B1F7898186FD57
:103E9000E6CF8BE097E20197F1F70E94101C80912A
:103EA00069050E94D11381E090E00E94011981E32D
:103EB00090E00E94011985E090E00E9401190E94A3
:103EC000871760916D0570916E0590E080E00E940B
:103ED000B11462E370E080E090E00E94B114D12C54
:103EE000C12C10E000E05BEAA52E54E0B52E80E581
:103EF00098E0FC0125913491C216D30609F471C0F3
:103F00000296F8E08E3B9F07A1F746E1F42E8091E0
:103F100069050E94D1136F2D89EC94E00E94C718A7
:103F2000F12CE12CC8018254974F4C01F401EE0DA5
:103F3000FF1D649189EC94E00E94C7189FEFE91A75
:103F4000F90AE7E0EE16F10489F70E948717C50128
:103F50000197F1F7FFEFCF1ADF0A095F1F4F073311
:103F60002EE1120709F0C3CF83EE93E00197F1F73A
:103F7000809175058032D1F0E09105018E2FEE0F12
:103F8000990BFC01EE0FFF1FE80FF91FEB56FD4FD9
:103F900080818F7080618093B8058091B9058078A9
:103FA000806180688093B9050E94B21C88E4809388
:103FB000B80081E08093D2031092180128960FB6C2
:103FC000F894DEBF0FBECDBFDF91CF911F910F914F
:103FD000FF90EF90DF90CF90BF90AF909F908F9029
:103FE000089535E1F32E93CFCF93DF9380917A0537
:103FF00090917B05209145043091460482179307E8
:10400000C9F09093460480934504EDEDF4E081E41B
:10401000DF011D928A95E9F7EEE1F5E081E2DF012B
:104020001D928A95E9F7EFE3F5E089E0DF011D9243
:104030008A95E9F70E94101CC0E0CE7FCD7FCB7F30
:10404000809169050E94D11384E290E00E940119D9
:104050006C2F89EC94E00E94C7180E9487170E9479
:10406000101C6DE070E08091690590916A050E94D6
:104070003A1BC8EAD5E089EC94E00E948018899345
:10408000B5E0C53BDB07B9F78091A80586FDE7CF12
:1040900083E998E00197F1F7DF91CF910895CF93ED
:1040A000C82F0E94101C8C2F8370282F2295207FF0
:1040B000C82FC295CC0FCC0FC07C982F990F990FA9
:1040C000C22BC92BC82B809169050E94D11382E1B4
:1040D00090E00E94011990E080E00E94011965E1E2
:1040E00089EC94E00E94C71862E089EC94E00E9499
:1040F000C7186C2F89EC94E00E94C71861E089EC26
:1041000094E00E94C7180E94871783E998E00197FE
:10411000F1F7EDEDF4E081E4DF011D928A95E9F716
:10412000EEE1F5E081E2DF011D928A95E9F7EFE328
:10413000F5E089E0DF011D928A95E9F710926605A6
:104140001092650510927305109264051092630534
:104150001092620510926105CF910895282F4CE3CB
:1041600064EC8EEA91E00E94DE190E946A1A8823AC
:1041700031F08091AE010E944F200C94661E08958C
:10418000282F43E060E085EA91E00E94DE198091EB
:104190003C01843021F48091A5010C944F200895B6
:1041A0008F929F92AF92BF920F931F93CF93DF9303
:1041B000CDB7DEB7A1970FB6F894DEBF0FBECDBF67
:1041C00019A2423008F44AE08E010F5D1F4F842E81
:1041D000912CB12CA12CA50194010E94483AE62F04
:1041E000B901CA01EA3044F5E05DD801EE938D01D2
:1041F000232B242B252B79F790E080E0109769F092
:10420000FD0101900020E9F73197AF014A1B5B0BDC
:10421000BD0189ED95E00E941314A1960FB6F894A4
:10422000DEBF0FBECDBFDF91CF911F910F91BF9029
:10423000AF909F908F900895E95CD7CF009769F079
:10424000FC0101900020E9F73197AF01481B590BA1
:10425000BC0189ED95E00C94131490E080E0089582
:10426000CF92DF92EF92FF920F93CF93DF93EC0107
:104270007B016A01C9010E94111B002361F08FE4D8
:1042800095E19093360480933504F7FE12C0CE0179
:104290000E941E2119C0F7FC02C0D7FE0CC0CE013F
:1042A000DF91CF910F91FF90EF90DF90CF900C9422
:1042B0001E21D7FCECCF6C2D8E2D0E948E15CE01C9
:1042C0000E941E21002321F0109236041092350422
:1042D000DF91CF910F91FF90EF90DF90CF900895F5
:1042E0000F930E946A1A882301F1E09105018E2F35
:1042F000EE0F990BFC01EE0FFF1FE80FF91FEB56B5
:10430000FD4F8181928120913C01233011F480ED99
:1043100092E00091D90327EA32E050E040E06DE2FC
:1043200070E00E9430210F91089580913C0181112D
:104330000FC0E09104018E2FEE0F990BFC01EE0FE0
:10434000FF1FE80FF91FE058FD4F81819281E1CFF7
:10435000E091CE03EE0FFF0BEB5CFD4F808191816E
:10436000D8CFDF92EF92FF920F931F93CF93DF93FB
:10437000CDB7DEB761970FB6F894DEBF0FBECDBFE5
:104380000E9420150091C9031091CA032091CB030C
:104390003091CC03601B710B820B930B643671055B
:1043A0008105910508F46BC08091750528E0E22E27
:1043B000F12C13E2803251F036E0E32EF12C13E4BD
:1043C000803521F498E0E92EF12C13E50E94101CB1
:1043D000809169050E94D113612F89EC94E00E94BD
:1043E000C71860E089EC94E00E94C7180E94871704
:1043F0000E94101CB7018091690590916A050E9486
:104400003A1BD12C0D2D10E00E151F0554F489EC2C
:1044100094E00E948018F801E157FA4F8083D3940A
:10442000F1CF20919305213408F020E430E0359558
:10443000279535952795FE01319650E040E0CF0154
:104440006CE7421753070CF060E261934F5F5F4FD8
:1044500040315105A9F7198A00E027EA32E046E029
:1044600050E070E060E00E9430210E9420156093CF
:10447000C9037093CA038093CB039093CC036196D6
:104480000FB6F894DEBF0FBECDBFDF91CF911F9165
:104490000F91FF90EF90DF900895EF920F93CF93DD
:1044A000DF9300D000D01F92CDB7DEB78091DF033D
:1044B000811166C08091D603811162C080913C0158
:1044C000843011F5E09103010E2E000CFF0BE35830
:1044D000FD4F6081643649F480E289838A8381E3F9
:1044E0008B838DE48C831D8233C02AE06202B0018D
:1044F000112480E2E82E00E020E043E0CE010196A6
:104500000E94C51A8BE6EECFE0911801EE0FFF0B6B
:10451000EB59FD4F80819181883E9340E9F20E94E2
:104520006A1A8823B9F18091180187309CF1E091D3
:104530001801EE0FFF0BEB59FD4F6081718190E286
:10454000E92E00E020E044E0CE0101960E94C51A69
:104550000091DA0327EA32E046E050E062E270E0E0
:1045600085ED92E00E9430210091DA0327EA32E0E3
:1045700046E050E06AE370E0CE0101960E943021EF
:104580000F900F900F900F900F90DF91CF910F91A0
:10459000EF900895E0911801EE0FFF0BEB59FD4FDE
:1045A00060817181A6CFEF92FF920F931F93CF93FB
:1045B000DF938091C10381110DC00E94201560938B
:1045C000BD037093BE038093BF039093C00381E04B
:1045D0008093C10380913C01843009F05BC18091DC
:1045E000D603882309F456C18091DE03811152C19C
:1045F0000E9420150091BD031091BE032091BF03BE
:104600003091C003601B710B820B930B6D327140B4
:104610008105910510F01092B9038091D503409166
:10462000BB035091BC032091E0033091E10342179A
:104630005307E1F481111CC08091E0039091E103E4
:104640009093BC038093BB03C091B903CC2369F161
:104650008091D5038111AAC0CC2309F4A7C0DF91B2
:10466000CF911F910F91FF90EF9008958823C1F093
:104670008091B8038F5F833080F48093B8031092E9
:10468000BA0300E027EA32E046E050E070E060E084
:1046900087E091E00E943021CFCF1092B803EFCF96
:1046A0001092B8031092B903EACF80917505803259
:1046B00011F40E94F41F8091A90580FFC9CF809159
:1046C000AA0580FFC5CF8091AB05823008F4C0CF2A
:1046D0008091AE0582958F7009F07CC020917305A2
:1046E0008091AF0584FB992790F9291749F09093A1
:1046F0007305EFE3F5E099E0DF011D929A95E9F784
:10470000837090E09093660580936505880F991FEC
:10471000FC01E15CFA4F2091B30521832091B205A1
:104720002083109247058FE395E09093B303809325
:10473000B2038091AE0582958F70B0E0A0E0823028
:10474000B9F48091AF058F7090E0909364058093E9
:104750006305880F991FFC01E25EFA4F2091B305B3
:1047600021832091B205208310923E05AEE1B5E091
:10477000B093B503A093B4038091A90580FD2DC02B
:10478000F0E0E0E0F093B703E093B60351961C929B
:10479000118A81E08093B9030E9420156093BD03C4
:1047A0007093BE038093BF039093C003E091B8035E
:1047B000F0E0EE0FFF1FEE54FC4F80819181D0E0BE
:1047C000ED2EF12CFC01EE0DFF1D2081222351F175
:1047D000DF5FF6CF90E080E0A8CF8091AE058295B4
:1047E0008F70823069F6E091AF05EF70F0E0F093E2
:1047F0006205E0936105EE0FFF1FEE0FFF1FE3520E
:10480000FB4F8091B00580838091B10581838091B9
:10481000B20582838091B305838310921C05EDED70
:10482000F4E0B0CFD11105C02091D503222309F4C3
:1048300016CF00E027EA32E046E050E070E060E0AA
:104840000E943021DD23F1F02091BA03022E000CEA
:10485000330BE216F306CCF42E193F0980E190E009
:104860008E199F09281739070CF4C901C82F10E2C7
:10487000F12CFC1651F0612F89ED95E00E942D1569
:10488000F394F7CFC3E01EE2F3CFD093BA031092B4
:10489000D503E5CE1092BC031092BB031092BA036D
:1048A0001092B9031092B803DACE4F925F926F92D2
:1048B0007F92AF92BF92CF92DF92EF920F931F93AE
:1048C000CF93DF93CDB7DEB7AC970FB6F894DEBFCA
:1048D0000FBECDBF9091CD03992309F4C2C0B82E6D
:1048E00088E2E4EDF1E0DE01119601900D928A95E7
:1048F000E1F70E9402146C010091B0031091B10322
:1049000097FD68010E9420154090AC035090AD03C4
:104910006090AE037090AF0364197509860997091A
:10492000613177428105910518F4BB2009F488C0F4
:104930001CA664E6033882E0180708F045C0093E6B
:1049400091E0190708F4A6C0FE01319690E080E0DE
:10495000AC010196248135810217130708F495C034
:10496000608171816017710708F48FC0621B730B3F
:10497000880F991F880F991FE1E0F0E0EC0FFD1FF1
:10498000E80FF91FA280B380FA01EE0FFF1FEE0FB0
:10499000FF1F81E090E08C0F9D1FE80FF91F4281FF
:1049A00053814A195B09021B130B409FC001419FB1
:1049B000900D509F900D11249B0136952795820FE5
:1049C000931F0E94203A6A0DA62EB12CC5010E94A9
:1049D000A91A12E003970CF013E090E2E92E00E030
:1049E00020E0412FB501CE0189960E94C51A1230F0
:1049F00011F485E28BA78091DE03811113C08091B1
:104A0000DF0381110FC08091D60381110BC000E03C
:104A100027EA32E046E050E066E670E0CE01899693
:104A20000E9430210E9420156093AC037093AD0367
:104A30008093AE039093AF03D092B103C092B003C2
:104A40008091B0039091B103C80ED91ED7FE03C068
:104A50009FEFC91AD90AD594C794D092B103C092D6
:104A6000B003AC960FB6F894DEBF0FBECDBFDF919A
:104A7000CF911F910F91EF90DF90CF90BF90AF90AB
:104A80007F906F905F904F90089534968930910594
:104A900009F05ECF60E098CFEF920F93CF93DF9352
:104AA00000D01F92CDB7DEB78091DE0381111CC00C
:104AB0008091D703811120C06091BC0570E080E235
:104AC000E82E00E020E042E0CE0101960E94C51AE7
:104AD0000091DB0327EA32E050E040E06CE670E052
:104AE000CE0101960E9430210F900F900F90DF9120
:104AF000CF910F91EF90089580E289838DE48A83AE
:104B00001B82E6CF282F8091D703882331F00E94A3
:104B10005C1C1092D7030C944C259091BC0521305D
:104B200051F49F3318F49F5F9093BC058091BC05AE
:104B30000E945C1CF0CF9923C9F39150F5CFCF931D
:104B4000DF93C82FD62F8091D703882349F0C3FD68
:104B500007C0C13011F4663019F481E00E9482254B
:104B60008091D70381110CC08C2F8370833041F466
:104B7000CB3031F08FEFD63009F481E00E948225EE
:104B80008C2FDF91CF9108950F938091DF038111D6
:104B900027C08091D603811123C00091D803002340
:104BA00031F080913C0101E0843009F400E0809113
:104BB000E0039091E103885596468830974090F045
:104BC000E0913A01EE0FFF0BE35DFD4F8081918193
:104BD00027EA32E046E050E070E060E00E943021D9
:104BE0000F91089589ED92E0F3CF0F930091D803D0
:104BF000002331F080913C0101E0843009F000E0B5
:104C0000E0913C01F0E0EE0FFF1FED5DFD4F27EA64
:104C100032E050E040E070E060E0808191810E94ED
:104C2000302183ED92E00E941E210E946A1A88239F
:104C3000A1F080915D01813081F4209101013091DA
:104C4000020101E04FEF5FEF6FEF7FEF8CED92E03D
:104C50000E9430210F910C94C42583ED92E00E94B4
:104C60001E21F8CFEF92FF921F93CF93DF93EC01B9
:104C70007B018881D093F003C093EF037093EE0320
:104C80006093ED0311E01827811122C01092DB031D
:104C90001092DA031092D9031092D8030E942015C3
:104CA0006093E9037093EA038093EB039093EC0322
:104CB0000E944C250E944D220E9470210E94F525E1
:104CC0001883F701DF91CF911F91FF90EF90099426
:104CD0001092E9031092EA031092EB031092EC0396
:104CE000EFCF0F9301E027EA32E050E040E070E0C0
:104CF00060E08EED92E00E9430218FE495E1909388
:104D00003604809335046091CD0170E090E080E03E
:104D10004AE00E94D02084EF92E00E941E214AE0E7
:104D200063E070E080E090E00E94D02010923604B2
:104D3000109235040F9108958F929F92AF92BF9277
:104D4000CF92DF92EF92FF920F931F93CF93DF9357
:104D500000D000D01F92CDB7DEB79091DE0399232B
:104D600009F466C0C090CD010C2C000CDD0821E0D8
:104D7000C21AD1089C2D990F990F4C2D491B440F35
:104D8000480F433008F466C04358440F9CE3F82EA4
:104D9000A82EB12CC42ED12C892E912C6623E9F09B
:104DA0008091DC03082E000C990B00E08A159B050E
:104DB00021F40091DD0381E0082729E0F29EC00183
:104DC000112427EA32E0A6014E5F5F4FB4016B5F0A
:104DD0007F4F835C9E4F0E94302189E08A9DF001C5
:104DE0008B9DF00D1124E35CFE4F1581868181308F
:104DF00009F44AC090F1823009F468C0833009F4A4
:104E00005AC08091DC03082E000C990B0091DD0341
:104E10008A159B0509F000E0A6014E5F5F4FB401C3
:104E20006D5D7F4F27EA32E0CE0101960E9430216E
:104E30000F900F900F900F900F90DF91CF911F91D7
:104E40000F91FF90EF90DF90CF90BF90AF909F9029
:104E50008F900895440F90E09ACF111108C081E41B
:104E6000898385E58A8384E58B831C82CACF612F81
:104E7000110F770B90E2E92E00E020E043E0CE0135
:104E800001960E94C51ABDCF612F012E000C770B31
:104E900077FF03C071956195710980E2E82E00E00B
:104EA00020E043E0CE0101960E94C51A17FFA9CF6A
:104EB0008DE28983A6CF112391F2113009F04BC006
:104EC0008FE489838EE68A8380E2CECF84E0F81275
:104ED0000CC0111106C085E3898380E38A8385E7CE
:104EE000C3CF87E3898385E3F9CF97E0F91208C040
:104EF0008BE411118DE4898388E48A838AE7B4CF37
:104F000028E0F2120CC0111104C082E5898383E508
:104F100025C083E589838EE48A8382E5A5CF8FE06F
:104F2000F81208C08CE4111185E5898383E58A8332
:104F300082E49ACF9AE0F9120CC0111104C081E307
:104F4000898380E30BC085E3898380E38A8385E2DC
:104F50008BCF1111B5CF8FE4898386E68A8384CF06
:104F60001F93CF93DF93D0E0C0E016E08091CD0196
:104F7000082E000C990B0197189F9001199F300D76
:104F800011242C0F3D1F2031310564F4982F990F07
:104F9000890F880F61E08C0F0E949C262196C630F5
:104FA000D10521F7DF91CF911F9108950F9300E074
:104FB00027EA32E046E050E070E060E087E091E010
:104FC0000E9430210E94F5250E944D2281E00F9120
:104FD0000C9455248091DF03811104C08091D60385
:104FE000882331F01092DF031092D6030C94D62759
:104FF00008954F925F926F927F929F92AF92BF926D
:10500000CF92DF92EF92FF920F931F93CF93DF9394
:10501000CDB7DEB72F970FB6F894DEBF0FBECDBF6A
:105020009091DE039111B7C0982E0E946A1A73E026
:10503000F72E811102C06CE0F62E8BE48C8788E499
:105040008D878AE78E871F868EE2888780E389872F
:105050008A871B8680913A01833081F46091E00356
:105060007091E1035FE2E52E0EE223E045E0CE0120
:1050700001960E94C51A8DE48C8724C0823011F4F9
:105080000E94C4250E946A1A6091E0037091E103B6
:10509000811197C01091810170903A0182E07812DD
:1050A00003C022E0113009F020E04FE2E42E0EE2CE
:1050B00045E0CE0101960E94C51A82E0781202C036
:1050C0001130C9F20E946A1A882309F4B1C0C501DF
:1050D0000E94A91A182F992009F4AFC063E080E05C
:1050E0000E948E1500E028E132E043E050E070E0DD
:1050F00060E08CEE92E00E9430216F2D70E000E0C5
:1051000028E132E043E050E0CE0101960E943021D8
:105110000E946A1A882351F1C6010E94A91AAC01A3
:10512000CE014130510509F49FC0099620E2E22EDC
:1051300000E020E0B6010E94C51A1B8680910101A3
:10514000909102010E94111BCE0108960E941E211F
:105150008091AB03181750F48091010190910201E6
:105160000E94111B84EF92E00E941E218091B701E2
:10517000813079F40E946A1A811178C000E027EA30
:1051800032E044E050E066E670E0CE010C960E940A
:1051900030211093AB032F960FB6F894DEBF0FBEED
:1051A000CDBFDF91CF911F910F91FF90EF90DF90D6
:1051B000CF90BF90AF909F907F906F905F904F90F7
:1051C00008959B01A8EEB3E00E948F3A4090D3036C
:1051D0005090D403052C000C66087708640D751DEB
:1051E000861D971D28EE33E040E050E00E946A3AA9
:1051F0002901520197FF07C09095809570956195A0
:105200007F4F8F4F9F4F2AE030E040E050E00E94F8
:105210006A3A6901C2010E94A91A30E2E32E00E055
:1052200020E0482FB201CE0101960E94C51A4ACF54
:105230008091E0039091E1034BCF0E946A1A88238A
:1052400009F45BCF8091AB03811708F056CF15307E
:1052500009F053CF00E027EA32E044E050E066E690
:1052600070E081ED92E047CF0A9660CF0E946A1A03
:10527000882309F48ECF153008F480CF8ACFCF93DE
:10528000DF93EC019093E1038093E0036AE070E028
:1052900080E090E00E94B11480913C01843021F5BF
:1052A000CE016AE070E00E94203A2AE0269FC00109
:1052B000279F900D11249093E1038093E0030E94B7
:1052C000271DE0913A0188E0E802F0011124E65E32
:1052D000FE4F8091E0039091E1039583848380E009
:1052E000DF91CF910C94F9270E94F21E9093E10375
:1052F0008093E003E6CF0F932091E2033091E30324
:1053000081E02130310509F080E080930601209191
:10531000E0033091E1033093D1032093D0038091D7
:105320003C01843009F058C04091E2035091E303FE
:10533000E09103010E2E000CFF0BE358FD4F60813E
:105340006403C001659F900D1124820F931F9093F9
:10535000E1038093E0038091D603882359F000E0B5
:1053600027EA32E046E050E070E060E087E091E05C
:105370000E94302180913A0128E08202C00111246C
:10538000FC01E65EFE4F40815181228133816091B4
:10539000E0037091E10326173707C0F55093E1034E
:1053A0004093E003865E9E4F2091E0033091E1033D
:1053B000FC013583248381E08093E4030E9420155F
:1053C0006093E5037093E6038093E7039093E8030B
:1053D00080E00F910C94F927E09118016091E203AD
:1053E0007091E303EE0FFF0BEB59FD4F40815181AC
:1053F000649FC001659F900D749F900D1124820FD2
:10540000931F9093E1038093E003B4CF6417750773
:1054100048F63093E1032093E003C4CF0E94F927BC
:105420000E94F5250E944D220E94702181E00E9479
:1054300055240C944C25AF92BF92CF92DF92EF92FD
:10544000FF920F931F93CF93DF93B82E10913A01E1
:1054500091E0123009F090E080918A05837C80937E
:105460008A0520917505203409F408C190938D05B3
:1054700080917A0590917B050E94271D88E0180293
:1054800060011124F601E65EFE4FC081D181E28009
:10549000F380133009F004C184E080933C018091D3
:1054A0008A05837C80938A0590917505903409F470
:1054B000EDC010928D0580917A0590917B050E9438
:1054C000271DE09138010E2E000CFF0BE358FD4F15
:1054D0008081082E000C990B009136011091370144
:1054E000D0937705C0937605F0927905E092780520
:1054F00090937D0580937C050C171D0708F4CEC0A2
:10550000E016F10608F4CAC00E94831D9091BD0503
:1055100020918005309182058091BA0540918105E6
:1055200040FB87F930FB86F98F7D20FB84F9807F73
:105530008093BA059093BB0580E2809375058091B6
:105540008A05807C836080938A0510928D0581E0B6
:1055500080938E050E94D11D8091BC050E945C1C29
:105560001092BE05809169050E94D11382E190E0FE
:105570000E94011990E080E00E9401198FEF90E0F5
:105580000E94011990E080E00E94011990E080E003
:105590000E94011990E080E00E9401190E94871783
:1055A0008BE097E20197F1F710927E0510937B054F
:1055B00000937A05C8010E94271DBE0180E094E196
:1055C0000E94281CB70181E094E10E94281C61E040
:1055D00070E082E094E10E94281C1092D203809136
:1055E000A5010E944F2061E070E081E095E10E94FA
:1055F000281C609139016093CE0370E082E091E154
:105600000E94281C8091660161E0811162E070E0D7
:1056100080E091E10E94281C80913A0198E0890283
:10562000F0011124E65EFE4F248135813093E103C1
:105630002093E00320913C019681243009F0C9C1F8
:1056400090930301823038F48091180185301CF06A
:1056500084E0809318018091DE03811103C081E012
:105660000E940E2ADF91CF911F910F91FF90EF9032
:10567000DF90CF90BF90AF900C94311A8D7F8093C4
:105680008A0510928D0590938E05F2CE8D7F8093C2
:105690008A0510928D0510928E050DCF8E0134CFA4
:1056A000123031F460E3E62E65E7F62ECEEAD6E05E
:1056B000F601E65EFE4F0681002E000C110B809174
:1056C000D203882309F4F7C01092D4031092D303B5
:1056D000B1100E94FE1E8091B9059091540190FB7B
:1056E00084F98093B9050E94B21C80913C01B0906E
:1056F000C901B394833011F0B0903C0190E080E098
:10570000073011053CF4F801EE0FFF1FEB59FD4F78
:1057100080819181F601E65EFE4FC480D580D093F2
:105720007705C0937605F0927905E092780590931D
:105730007D0580937C05CC16DD0608F4BAC0EC1418
:10574000FD0408F4B6C09091BD05209180058091BC
:10575000BA053091810530FB87F98F7920FB84F9F8
:10576000807F81608093BA059093BB0580E480932D
:10577000750580918A05807C816080938A051092EE
:105780008D0581E080938E050E94D11D8091BC051E
:105790000E945C1CB092BE0582E080937E05D09290
:1057A0007B05C0927A05C6010E94271D0E94F31C4A
:1057B0008091B9059091540190FB84F98093B905CB
:1057C0000E94B21C91E080915D01813009F490E06B
:1057D0008091B90590FB87F98093B9050E94B21CAE
:1057E00080915D0190E0811193E08091B905807F07
:1057F000892B8093B9050E94B21C60914B0170E027
:1058000082E093E30E94281C80913C0194E0833065
:1058100069F0E09105018E2FEE0F990BFC01EE0F60
:10582000FF1FE80FF91FEB56FD4F90819F7080918D
:10583000B805807F892B8093B8050E94B21C0E9416
:10584000661E8091B90590918A0190FB85F980933D
:10585000B9050E94B21C0E94271E80916F0194EF2F
:10586000980F9F3468F480937F0524E531E0829F90
:10587000B001839F700D112483E091E30E94281CE6
:10588000BE0180E094E30E94281CB70181E094E30C
:105890000E94281C61E070E0073011053CF4000F05
:1058A000111FF801EB59FD4F6081718182E094E393
:1058B000B1CE6E0148CF10923C0190E080E00730FD
:1058C00011053CF4F801EE0FFF1FEB59FD4F8081ED
:1058D0009181F601E65EFE4FA480B580D0937705F6
:1058E000C0937605F0927905E092780590937D0556
:1058F00080937C05AC16BD0608F469C0EA14FB046D
:1059000008F465C080917E058130D1F10E94831D2D
:105910009091BD05209180058091BA053091810557
:1059200030FB87F98F7920FB84F9807F8160809339
:10593000BA059093BB0580E48093750580918A0534
:10594000807C816080938A0510928D0581E0809330
:105950008E050E94D11D80917F0594EF980F9F3492
:1059600058F424E531E0829FB001839F700D11242B
:1059700083E091E30E94281C8091BC050E945C1C7E
:105980001092BE0581E080937E05B0927B05A092C7
:105990007A05C5010E94271D60914B0170E082E0ED
:1059A00093E30E94281CF601E65EFE4FE781E09338
:1059B00004018E2FEE0F990BFC01EE0FFF1FE80F75
:1059C000F91FE058FD4F80810E949F1D44CF5E016A
:1059D00099CF9093180136CE282F41E060E089ECF2
:1059E00091E00E94DE1980913C01833019F481E03E
:1059F0000C941B2A0895282F41E060E08DE591E08A
:105A00000E94DE190E946A1A8823F9F091E08091C1
:105A10005D01813009F490E08091B90590FB87F930
:105A20008093B9050E94B21C80915D0193E08111C1
:105A300001C090E08091B905807F892B8093B905E2
:105A40000E94B21C81E00C941B2A0895282F41E08B
:105A500060E084E591E00E94DE190E946A1A8823C2
:105A600069F08091B9059091540190FB84F980937D
:105A7000B9050E94B21C81E00C941B2A0895FF9284
:105A80000F931F93CF93DF93F82E0091E0031091B3
:105A9000E1030E946A1A882351F08091D303909108
:105AA000D40368EE73E00E94343A060F171FEFE349
:105AB000F2E0DF01F11029C09496CD91DC91959729
:105AC000C017D10738F580913A01823061F52097EF
:105AD00051F1D093E103C093E0031092D4031092EC
